:020000040800F2
:10000000D804002001010008931400086F130008B1
:100010009114000859010008911D0008000000001B
:10002000000000000000000000000000B7140008FD
:100030008302000800000000B5140008E91400085D
:100040001B0100081B0100081B0100081B01000820
:100050001B0100081B0100081B0100081B01000810
:100060001B0100081B0100081B0100081B01000800
:100070001B0100081B0100081B0100081B010008F0
:100080001B0100081B0100081B0100081B010008E0
:10009000851D00081B0100081B0100081B0100084A
:1000A0001B0100081B0100081B0100081B010008C0
:1000B0001B0100081B0100081B0100081B010008B0
:1000C0001B0100081B0100081B0100081B010008A0
:1000D0001B010008791D00081B0100081B01000816
:1000E0001B0100081B0100081B010008DFF80CD0F1
:1000F00000F020F800480047B11D0008D804002097
:100100000648804706480047FEE7FEE7FEE7FEE7B1
:10011000FEE7FEE7FEE7FEE7FEE7FEE76115000803
:10012000ED000008421C10F8011B0029FBD1801AC9
:1001300070470000064C074D06E0E06840F0010300
:1001400094E8070098471034AC42F6D3FFF7D2FF8B
:100150003C2100085C210008FEE7000010B50029E2
:1001600058D0826B4FF4D873046803EB0113E45842
:1001700014F0040494600468E4584DD0E40854601A
:100180000468E35803F00203D3604FF4DA730468A1
:1001900003EB0113E45804F00F04146111620468C6
:1001A000E358C3F30723D3614FF4DC73046803EB14
:1001B0000113E45814750468E458240A547504685B
:1001C000E458240C94750468E3581B0ED3754FF45F
:1001D000DE73046803EB0113E45814760468E458F2
:1001E000240A54760468E458240C94760468E3588E
:1001F0001B0ED3760368202289B11A610268536905
:1002000023F05003536190F83C20222A0DD0322A6B
:100210000BD00FE0426BA5E7640D1460B0E7DA6025
:100220000268536923F00A03ECE70268536923F478
:100230000F43536112220123002990F83C1006D08D
:10024000522915D0622916D0722906D115E042290B
:100250000ED0622908D0722908D080F83C3000BF47
:1002600000F080FA002010BD322107E0522105E0A5
:1002700080F83C20F4E7222100E0422180F83C1085
:10028000EEE77047F0B50C7D012303FA04F2046831
:10029000D4F800524E6A25F47C5503EB06231D4327
:1002A000C4F800520368D3F81C429443C3F81C42BC
:1002B0004FF41073CD691C1DBDB90568D5F80C62EB
:1002C0009643C5F80C628E894D684F6966F31F45E9
:1002D000066803EBC707F5510E890D684F6966F391
:1002E0001F45066804EBC707F551CD69012D17D1ED
:1002F0000568D5F80C621643C5F80C620E884D6887
:100300004F6966F31F45066803EBC703F5500D8977
:10031000CB684E6965F31F43056804EBC6042B5197
:100320008B69002B0368D3F8044211D054EA02040D
:10033000C3F804420B69002B0368D3F8144209D0B8
:1003400054EA0204C3F81442096A012904D009E0FE
:100350009443EDE79443F5E70168D1F81C32134369
:10036000C1F81C320068D0F8001221F00101C0F879
:1003700000120020F0BD70472DE9F04104460068EE
:100380000026C168C1F300134169C1F3C002102106
:1003900013B10AB14E01C160206802694369C2F31A
:1003A0000012C3F380131AB113B146F480660161E1
:1003B000216848694FF00105C043C0074ED18A68E3
:1003C0007648904323D000208B68754A9A4320D00A
:1003D00000228F68734BBB431DD00023104318438A
:1003E0003CD088688A68C0F340008B68C2F3402222
:1003F00003F001031043184329D04A69204622F034
:1004000001024A6194F83C10122906D00AE001204A
:10041000DAE70122DDE70123E0E701684A6922F417
:100420000F424A6190F83C10422908D0522908D066
:10043000722908D080F83C5000F095F909E022219B
:1004400002E0322100E0622180F83C10F4E746F43B
:10045000006620688168544A114381602168C86839
:10046000496910F0030FC1F3400104D019B1002114
:100470002046FFF773FE21680869496910F0030FF1
:10048000C1F3001104D019B101212046FFF766FE27
:10049000206C3043206420688169426911F0010FAB
:1004A0004369C2F30022C3F3C03305D022B11BB1AC
:1004B000216C41F0010121648169C1F3400341696C
:1004C000C1F340224169C1F3C0312BB122B119B14E
:1004D000216C41F0020121648169C1F3800341690B
:1004E0004269C1F38021C2F3C0322BB121B11AB1EC
:1004F000216C41F004012164816911F0700F08D072
:1005000000224169C1F3C0234169C1F3C03112B176
:1005100021E00122F5E7F3B1E9B1816901F0700151
:1005200040292FD006DC102909D020290BD03029F2
:100530000DD123E0502929D0602908D12AE0216C6F
:1005400041F0080102E0216C41F010012164816951
:1005500021F070018161206C00280DD021680420F9
:10056000486084F83C502068416948F65B729143CA
:1005700041612046FFF7FFFEBDE8F081216C41F0AC
:100580002001E3E7216C41F04001DFE7216C41F0FD
:100590008001DBE7216C41F48071D7E701000004A2
:1005A0000001000800000110090501002DE9F041DB
:1005B00004004FF0000504D094F83C00002618B168
:1005C00007E00120BDE8F08184F83D60204600F09E
:1005D00089F8022084F83C002068016821F00201BB
:1005E00001602068016841F00101016000F0FEF93E
:1005F00007464FF0030804E000F0F8F9C01B0A2892
:1006000059D820684068C007F6D021684868C007FC
:100610005ED0A069012801D145F08005E06901287C
:1006200034D025F04000226A012A32D020F0200088
:10063000626A012A30D020F01000A26A012A2ED06E
:1006400020F00800E26A012A2CD020F004000A6899
:1006500022F0FC0202430A60D4E902010843D4E913
:100660000412114308436168491E08432168C861A8
:100670002068016821F0010101602068016821F013
:100680000101016000F0B2F9054619E045F04000B3
:10069000C9E740F02000CBE740F01000CDE740F084
:1006A0000800CFE740F00400D1E700BF00F09EF95A
:1006B000401B0A2804D904F83C8F0320667081E7A8
:1006C00020684068C007F1D120684068C00703D0A7
:1006D000042084F83C0074E72664012084F83C0080
:1006E00000206FE710B500681A4986B088422ED105
:1006F0001948C16941F00071C161C069174C00F02F
:10070000007004904FF480700090002001900290DF
:100710006946204600F086F860150090022001909E
:10072000032003906946204600F07CF80C4841689D
:1007300021F4C04141F0E06141F480414160002278
:100740001146142000F0E6F9142000F0D7F906B0A5
:1007500010BD00000064004000100240000C014089
:10076000000001407047704710B590F82110002438
:10077000022903D00421816301243DE001680A6855
:1007800022F00E020A6001680A6822F001020A6083
:100790001A4A0168914201D1012121E0174A14321D
:1007A000914201D110211BE0144A2832914201D11B
:1007B000891515E0114A3C32914201D189140FE0AC
:1007C0000E4A5032914202D14FF4803108E00B4A78
:1007D0006432914202D14FF4801101E04FF08071F8
:1007E000064A083A5160012180F82110002180F862
:1007F0002010416B01B18847204610BD080002401F
:1008000070B5044600F0F2F80546601C02D00448BA
:100810000078044400F0EAF8401BA042FAD370BD0F
:10082000000000202DE9F84FDFF890A100220AF126
:10083000040B144601274FF00F090BF1040E00BF03
:100840000B6807FA04F52B40AB4274D1DFF870C196
:100850004E68A6EB0C0866452BD00DDC032E34D079
:1008600005DC36B3012E19D0022E2FD11BE0112E3C
:1008700016D0122E2AD119E0B8F5881F19D006DC3F
:10088000B8F5803F15D0B8F5801F1FD111E0B8F53D
:10089000001F0ED0B8F5041F18D10AE0CA6815E091
:1008A000CA68121D12E0CA6808320FE0CA680C322A
:1008B0000CE08A682AB1012A4FF0080203D0456192
:1008C00004E0042202E0056100E00022FF2B01D8D1
:1008D000064601E000F104064FEA840501D9A5F1BE
:1008E0002005D6F800C009FA05F82CEA080C02FA2F
:1008F00005F54CEA050CC6F800C04D68ED0057D56B
:10090000304DAE6946F00106AE61AD6924F00306D4
:1009100005F0010500952C4D06EB050CDCF80850A0
:10092000A6074FEA167809FA08F6B543274EB042F3
:1009300002D1002610E03BE0254EB04201D1012655
:100940000AE0244EB04201D1022605E0224EB04218
:1009500001D1032600E0042606FA08F62E43CCF85F
:1009600008604D68DAF80060ED03554601D51E4376
:1009700000E09E432E604D68DBF80060AD035D46ED
:1009800001D51E4300E09E432E604D68DEF80060F6
:10099000ED02754601D51E4300E09E432E604D6872
:1009A000AD020E4D2E6801D51E4300E09E432E6021
:1009B000641C102CFFF444AFBDE8F88F0004014024
:1009C000000011100010024000000140000801402A
:1009D000000C014000100140001401400C040140D3
:1009E0000AB1016170470904FBE700000148806813
:1009F000704700000000002002488168027811441E
:100A00008160704700000020074810B5016841F080
:100A100010010160032000F09DF8002000F006F8AE
:100A200000F024F8002010BD0020024070B50D4DEC
:100A300004464FF47A712878B1FBF0F00A4909684E
:100A4000B1FBF0F000F02DFB48B9102C07D20022CA
:100A50002146501E00F05EF800206C6070BD012041
:100A600070BD0000000000200C000020214808B5E7
:100A7000816941F001018161816901F00101009109
:100A8000C16941F08051C161C06900F0805000909F
:100A9000032000F05FF8002211466FF00B0000F019
:100AA00039F8002211466FF00A0000F033F80022F6
:100AB00011466FF0090000F02DF800221146501F7A
:100AC00000F028F800221146101F00F023F8002241
:100AD0001146901E00F01EF800221146501E00F034
:100AE00019F80548416821F0E06141F0007141606A
:100AF00008BD0000001002400000014000F01F028D
:100B0000012191404009800000F1E020C0F800116F
:100B100070470000F0B40E4B1B680C46C3F3022371
:100B2000C3F10705042D00D90425191D072901D299
:100B3000002300E0DB1E012606FA05F1491E2140D4
:100B400099409E40761E16403143F0BC00F0A2BC96
:100B50000CED00E0064900F0070208684FF6FF03BD
:100B6000184040EA0220034A104308607047000022
:100B70000CED00E00000FA052DE9F047DFF83C81BC
:100B800005460E46D8F8000000F00700B0420CD22F
:100B9000D8F8001021F007013143C8F80010D8F848
:100BA000000000F00700B04263D12878444C800771
:100BB00005D56068A96820F0F000084360602878D7
:100BC000C00745D06868012816D02168022816D0D1
:100BD000890700294DDA616821F003010143616052
:100BE000FFF704FF6968074641F2883001290FD0FA
:100BF0000229814619D027E021688903E9E78901A4
:100C0000E7E700BFFFF7F2FEC11B494501D918E035
:100C100081466068C0F381000128F3D118E000BF6D
:100C2000FFF7E4FEC11B49450BD86068C0F38100A3
:100C30000228F5D10CE000BFFFF7D8FEC11B4945E3
:100C400002D90320BDE8F087606810F00C0FF3D1E3
:100C5000D8F80010404601F00701B1420BD90168F5
:100C600021F0070131430160006800F00700B04245
:100C700001D00120E6E72878400705D56068E968DB
:100C800020F4E060084360602878000706D56068BB
:100C9000296920F4605040EAC100606000F03CF82F
:100CA0006168084AC1F30311515CC84006490860F5
:100CB0000020FFF7BBFE0020C4E700000020024038
:100CC00000100240902000080C000020014800683D
:100CD000704700000C00002004480549006849687E
:100CE000044AC1F30221515CC84070470C00002047
:100CF00000100240A0200008044805490068496827
:100D0000044AC1F3C221515CC84070470C00002066
:100D100000100240A020000812A185B00FC98DE884
:100D20000F0014A0144A006804905168134801F0A1
:100D30000C03042B10D0082B0ED1C1F38343C9033D
:100D40001DF803000AD5516804AAC1F34041515C63
:100D50000A4A5043B0FBF1F005B0704708494843D8
:100D6000FAE7000002030405060708090A0B0C0D48
:100D70000E0F1010010200000010024000127A0055
:100D800000093D002DE9F84F04460078B94DC00731
:100D900048D06868C0F38100012807D06868C0F3B4
:100DA0008100022809D16868C00306D5286880033D
:100DB00038D5606800286FD034E06068B0F5803FB7
:100DC0000BD010B1B0F5A02F11D0286820F48030DE
:100DD0002860286820F4802002E0286840F48030F1
:100DE0002860606888B1FFF701FE064609E02868C0
:100DF00040F480202860F0E7FFF7F8FD801B6428AE
:100E000075D828688003F7D50CE0FFF7EFFD06469C
:100E100005E000BFFFF7EAFD801B6428F0D82868D2
:100E20008003F7D42078944E80074FF001094FF0EB
:100E300000083BD5686810F00C0F07D06868C0F355
:100E40008100022809D16868C00306D42868800799
:100E500014D5206901281FD110E02069B0B1C6F86F
:100E60000090FFF7C3FD074605E000BFFFF7BEFD9A
:100E7000C01B0228C4D828688007F7D52868616994
:100E800020F0F80040EAC10028600FE0C6F80080BA
:100E9000FFF7ACFD074606E0E9E000BFFFF7A6FD5F
:100EA000C01B022823D828688007F7D420780007C1
:100EB0002CD57248A169D9B1C0F80090FFF796FD12
:100EC000074604E0FFF792FDC01B02280FD8686AAE
:100ED0008007F7D56A484FF4FA510068B0FBF1F08B
:100EE000009000BF0098411E0091FAD20EE080E011
:100EF000C0F80080FFF77AFD074604E0FFF776FDB3
:100F0000C01B022875D8686A8007F7D4207840078C
:100F100060D5E8690027C00008D4E86940F0805037
:100F2000E861E869012700F08050009055480168A9
:100F3000C90513D40168834641F480710160FFF74D
:100F400055FD824606E000BFFFF750FDA0EB0A000A
:100F500064284ED8DBF80000C005F5D5E06801280C
:100F60000AD008B1052813D0286A20F001002862B1
:100F7000286A20F0040002E0286A40F0010028629C
:100F8000E06841F2883B98B1FFF730FD82460BE004
:100F9000286A40F004002862EEE700BFFFF726FD54
:100FA000A0EB0A0159455AD8286A8007F6D50CE00B
:100FB000FFF71CFD824605E0FFF718FDA0EB0A01D4
:100FC00059454CD8286A8007F6D41FB1E86920F04B
:100FD0008050E861E06988B36968C1F38101022942
:100FE00045D00228C6F8608004D0FFF7FFFC044615
:100FF00038E034E0FFF7FAFC074604E0FFF7F6FCC0
:10100000C01B02282BD828688001F7D4206AB0F5CD
:10101000803F05D16868A16820F40030084368600B
:10102000D4E908010843696821F474110843686031
:10103000C6F86090FFF7DAFC044606E015E000BF52
:10104000FFF7D4FC001B022809D828688001F7D5D7
:101050000BE000BFFFF7CAFC001B022802D90320E7
:10106000BDE8F88F28688001F4D40020F8E701205B
:10107000F6E70000001002400000424280044242B5
:101080000C000020007000404FF0E02104280869A7
:1010900003D020F004000861704740F00400FAE734
:1010A000704710B5401EB0F1807F01D3012010BD04
:1010B0004FF0E02460610F21601700F0EBF9002091
:1010C000A06107202061002010BD10B5FFF7E8FFE8
:1010D00010BD704770B5026804461068D168536946
:1010E00010F00F0F50D003F0010501F49076354356
:1010F0005DD0C20705D0CA0503D5E26B42F00102FC
:10110000E263420705D5DA0703D0E26B42F0020240
:10111000E263820705D5DA0703D0E26B42F00402EE
:10112000E263020705D5DA0703D0E26B42F008025A
:10113000E263E26B002A33D0800604D5880602D52C
:10114000204600F0B1FC20684069E16BC0F38010DC
:10115000090700D428B3204600F098FC20684169B4
:1011600049061AD5416921F040014161606BA0B187
:101170001B494163606BFFF7F7FA002810D0606BE2
:10118000416BBDE870400847830610D58B060ED52D
:101190002046BDE8704000F087BC2046FFF799FF6D
:1011A00070BD2046FFF795FF0020E06370BD030689
:1011B00006D50B0604D52046BDE8704000F078BD8A
:1011C0004006F3D54806F1D5D168204621F040010C
:1011D000D160202184F8391000F0C8F870BD0000FB
:1011E0007D1A000870B5040004D094F83900002579
:1011F00010B106E0012070BD84F83850204600F0A0
:1012000023F8242084F839002068C16821F40051B3
:10121000C160204600F094FC2068016921F49041EF
:1012200001612068416921F02A0141612068C1689B
:1012300041F40051C160E563202084F8390084F84E
:101240003A00002070BD000010B50068154986B056
:10125000884225D11448816941F4804181618069C7
:10126000124C00F4804004904FF400700090022073
:1012700001900320039069462046FFF7D3FA00212E
:101280002015CDE90001029169462046FFF7CAFA10
:10129000002211462520FFF73DFC2520FFF72EFCFC
:1012A00006B010BD003801400010024000080140A7
:1012B00070472DE9F843044690F839001F4616465A
:1012C0000D46202850D1A5B19EB194F838000128D0
:1012D0004AD0012084F838004FF00008C4F83C8060
:1012E000212084F83900FFF781FBA6848146E6843B
:1012F00026E00120BDE8F883E08C401EE084A06871
:101300004B46B0F5805F4FF000024FF08001204661
:10131000009703D000F0FDFCE8B90DE000F0F9FC07
:10132000C8B928882168C0F308004860206908B15E
:101330006D1C05E0AD1C03E0216815F8010B486049
:10134000E08C0028D8D14B4600224021204600974F
:1013500000F0DFFC08B10320CCE7202084F839003E
:1013600084F838800020C5E70220C3E77047FEE715
:10137000154810B5134901600921416000214FF45F
:1013800040228160C0E903124FF48012C0E90521B8
:10139000C161016241628162C162FFF707F9002801
:1013A0000BD000F065FE09A000F086F807A000F061
:1013B00083F811A000F080F8FEE7BDE8104015A00A
:1013C00000F07AB800640040100000202F2F2F2F6B
:1013D0002F2F2F2F2F2F2F2F2F2F2F2F2F2F2F2F1D
:1013E0002F2F2F2F2F2F2F2F2F2F2F2F2F2F2F2F0D
:1013F0002F2F2F2F2F0000004552524F5220494EC1
:101400004954494154494E472043414E2042555387
:101410000000000043414E2042555320494E49549C
:10142000494154454400000030B5174885B08169F2
:1014300041F020018161816901F0200104918169FD
:1014400041F008018161816901F00801049181691D
:1014500041F00401816180690C4D00F004004FF4FB
:1014600000540490002221462846FFF7B9FA0120D3
:10147000CDE90040002002900220039069462846F2
:10148000FFF7D0F905B030BD00100240000C01405C
:10149000FEE770470907090E002806DA00F00F0082
:1014A00000F1E02080F8141D704700F1E02080F882
:1014B000001470477047704738B50446FEF732FE97
:1014C00082B20A2321460648FFF7F3FE05A00A234D
:1014D00000680090022269460148FFF7EAFE38BD25
:1014E000540000200D0A000010B5FFF785FABDE892
:1014F0001040FFF7EABD30B58FB001210804CDE9F7
:1015000000100024029402250491CDE907504FF405
:10151000E01009906846FFF735FC00B1FEE70F20A8
:10152000CDE90A054FF48060CDE90C4002210AA8FC
:101530000E94FFF721FB00B1FEE7FFF7C7FB4FF466
:101540007A71B0FBF1F0FFF7ACFD0420FFF79CFDD2
:1015500000221146501EFFF7DDFA0FB030BD00002B
:101560000D48016841F00101016041680B4A1140DA
:10157000416001680A4A11400160016821F480213C
:101580000160416821F4FE0141604FF41F01816058
:101590000449C00308607047001002400000FFF8D3
:1015A000FFFFF6FE08ED00E02DE9F05F04468946F6
:1015B00090A0FFF781FF98A0FFF77EFF9DA0FFF7A7
:1015C0007BFFA1A0FFF778FF20688168490105D45F
:1015D0008168090102D48068C0006ED594F83D008E
:1015E000012816D04FF0010A84F83DA09BA0FFF718
:1015F00063FF9EA0FFF760FF94F83C0022280BD009
:1016000032280ED062281ED09FA0FFF755FF12206F
:101610000BE00220BDE8F09FA1A0FFF74DFF4220A4
:1016200003E0A6A0FFF748FF522084F83C00AAA0E0
:10163000FFF742FF20688168490109D5AFA0FFF795
:101640003BFF002610E0B6A0FFF736FF7220ECE764
:101650008068000104D5BAA0FFF72EFF012603E041
:10166000C0A0FFF729FF0226C7A0FFF725FF4FF410
:10167000C071206801EB0617C15901F00101C15189
:10168000C54DA868002861D02168CA59206B8368BD
:101690001A43C368406843EAC0000243CA51BFA06E
:1016A000FFF70AFFC4A0FFF707FFC8A0FFF704FF7A
:1016B000287C00F00F00286100E095E0C7A0FFF74C
:1016C000FBFE4FF4C270216800EB061080460858FC
:1016D00020F00F0241F80820CC48FFF7EDFE21680A
:1016E00051F808202869024341F80820C848FFF74C
:1016F000E3FEC8A0FFF7E0FECBA0FFF7DDFE287DEC
:10170000D5F815104FF4C47240EA0120216802EBAD
:1017100006128850287ED5F819104FF4C67240EA98
:101720000121206802EB06128150C5A0FFF7C4FE1C
:101730002068C15941F00101C151FFF757F9054631
:101740000027DFF81883DFF818B327E02068C159B5
:10175000EA6811432A8841EA4251C151C1A09FE77A
:10176000B9F1FF3F1AD0B9F1000F04D0FFF73EF9ED
:10177000411B494512D9032084F83C004EB1012E8B
:1017800009D04FF400002168886084F83D70032080
:1017900040E78020F7E74FF40040F4E78EB120687F
:1017A000012E816812D0B44888430028D8D194F81B
:1017B0003C0042280DD052280DD0722812D050463D
:1017C0000AE02068816828EA0100EEE72BEA0100C0
:1017D000EBE7222000E0322084F83C0084F83D70E2
:1017E000002017E76220F7E7042084F83C0001207E
:1017F00010E700005374617274696E672074686545
:10180000207472616E736D69742066756E6374699D
:101810006F6E206E6F7700007472616E736D697405
:101820006D61696C626F7820696E742063726561A6
:10183000746564007469636B73746172742063729D
:101840006561746564000000506172616D65746566
:10185000727320636865636B6564000070726F6308
:10186000657373206C6F636B656400006368656308
:101870006B696E67206863616E2073746174757341
:10188000206E6F770000000048414C5F43414E5F7F
:1018900053544154455F425553595F54580000001A
:1018A00048414C5F43414E5F53544154455F42555C
:1018B00053595F54585F52583000000048414C5F04
:1018C00043414E5F53544154455F425553595F5411
:1018D000585F52583100000053656C656374206F87
:1018E0006E6520656D707479207472616E736D69B8
:1018F00074206D61696C626F780000007472616EB3
:10190000736D69746D61696C626F78203D2043412D
:101910004E5F54584D41494C424F585F303B000098
:1019200048414C5F43414E5F53544154455F4255DB
:1019300053595F54585F5258305F5258310000007D
:101940007472616E736D69746D61696C626F782019
:101950003D2043414E5F54584D41494C424F585FE2
:10196000313B00007472616E736D69746D61696CF6
:10197000626F78203D2043414E5F54584D41494CA1
:10198000424F585F323B00005365742075702074DD
:101990006865204964000000BC0000205365747431
:1019A000696E6720757020616E20657874656E645D
:1019B0006564204944000000446F6E6520736574BF
:1019C00074696E672074686520494400536574200B
:1019D00075702074686520444C4300006863616E34
:1019E0002D3E7054784D73672D3E444C4320263D68
:1019F000202875696E74385F742930783030303043
:101A0000303030463B20444F4E450000A8200008AF
:101A1000F0200008536574207570207468652044B8
:101A20004C4320444F4E450053657420757020741C
:101A300068652064617461206669656C64000000FB
:101A4000536574207570207468652064617461202A
:101A50006669656C6420444F4E4500000100000437
:101A60000001000853657474696E67207570206109
:101A700020535444204944000000011010B5406A2E
:101A80000021C185C184FFF724FB10BD0168CA682D
:101A900022F49072CA6001684A6922F001024A6128
:101AA000202180F83A10704710B590F83A1022299A
:101AB00001D0022010BD8168B1F5805F11D00169AD
:101AC000002901681FD0496801F07F03816A4A1C20
:101AD00082620B70C18D491E0904090CC18518D0A2
:101AE0002BE00269816A002A0268526805D0D2B2EE
:101AF0000A80816A491C8162ECE7C2F308020A800D
:101B0000816A891CF7E74A68816A4B1C83620A7004
:101B1000E0E70168CA6822F02002CA600168CA686A
:101B200022F48072CA6001684A6922F001024A61A7
:101B3000202180F83A10FFF7BBFB002010BD000009
:101B40002DE9F041044600680169E26821F4405142
:101B5000114301612169A068084361690843216854
:101B6000CA6841F20C639A430243CA602068416923
:101B7000A26921F44071114341614C4920686425F8
:101B8000322688423CD1FFF7B7F800EBC00101EBE9
:101B9000001061688900B0FBF1F7FFF7ADF800EBCA
:101BA000C00101EB00106168B0468900B0FBF1F0A4
:101BB000B0FBF5F06FF01801484307EB800106EB2E
:101BC0000110B0FBF5F000F0F006FFF795F800EB20
:101BD000C00101EB001061688900B0FBF1F0B0FBBF
:101BE000F5F006EB0016FFF787F800EBC00101EBFC
:101BF000001061688900B0FBF1F7FFF77DF83BE06A
:101C0000FFF76AF800EBC00101EB00106168890082
:101C1000B0FBF1F7FFF760F800EBC00101EB00103B
:101C20006168B0468900B0FBF1F0B0FBF5F06FF0F1
:101C30001801484307EB800106EB0110B0FBF5F0FB
:101C400000F0F006FFF748F800EBC00101EB0010D0
:101C500061688900B0FBF1F0B0FBF5F006EB00160F
:101C6000FFF73AF800EBC00101EB00106168890052
:101C7000B0FBF1F7FFF730F800EBC00101EB00100B
:101C800061688900B0FBF1F0B0FBF5F06FF018016E
:101C9000484307EB800108EB0110B0FBF5F0216829
:101CA00000F00F0030448860BDE8F081003801404A
:101CB00090F83910212901D0022070478168B1F5D0
:101CC000805F016A0BD04A1C026202680978516089
:101CD000C18C491E0904090CC1840ED017E0098883
:101CE0000268C1F30801516001690029016A02D04C
:101CF000491C0162ECE7891CFBE70168CA6822F015
:101D00008002CA600068C16841F04001C1600020E3
:101D100070472DE9F041984617460E460446069D49
:101D20001DE0681C1BD02DB1FEF760FEA0EB080083
:101D3000A84214D92068C16821F4D071C16020681C
:101D4000416921F001014161202084F8390084F8C3
:101D50003A00002084F838000320BDE8F0812068B4
:101D6000006836EA000004D00020B842D9D0002034
:101D7000F3E70120F9E700000148FFF7ABB90000E5
:101D8000540000200148FEF7F7BA000010000020C0
:101D9000FEE702E008C8121F08C1002AFAD1704706
:101DA0007047002001E001C1121F002AFBD17047DB
:101DB000FEF72AFEFFF79FFBFFF736FB40483F493F
:101DC000002401604FF4E131C0E901140C21C4602A
:101DD000C0E904418461C461FFF704FA00B1FEE781
:101DE00038A0FFF769FB39A0FFF766FB3EA0FFF7BD
:101DF00063FB42A0FFF760FB44A0FFF75DFB4BA035
:101E0000FFF75AFBFFF7B4FA4FF4FA763046FEF7C5
:101E1000F7FC4DA0FFF750FB54A0FFF74DFB2848FF
:101E2000012540300E214461C0E90645046044604C
:101E30008460C4600461C0E9085153A0FFF73CFB13
:101E40001F494031A1F18400FEF71CFA59A0FFF7A9
:101E500033FB5EA0FFF730FB63A0FFF72DFB1849B3
:101E6000F12068318C6008600820C1E903400C75DE
:101E70004D75022088750320C8750420087605205A
:101E80004876062088760720C8765EA0FFF714FB08
:101E900062A0FFF711FB3046FEF7B2FC65A0FFF72A
:101EA0000BFB68A0FFF708FB05480A214438FFF741
:101EB0007BFB6BA0FFF700FBF0E700000038014060
:101EC0005400002057656C636F6D65005541525496
:101ED00020616E64204750494F20697320696E6904
:101EE0007469617465640000436C6F636B20636F99
:101EF0006E666967757265642000000048414C2079
:101F0000696E69746961746564000000476F696E89
:101F10006720746F2074727920746F20696E697401
:101F200069617465204D585F43414E00494E4954E4
:101F300049414C4953494E472043414E2042555355
:101F4000204E4F570000000053657474696E67207F
:101F5000746865204D6573736167657320616E6495
:101F600020706572616D657465727300537461727F
:101F700074696E672077697468207346696C74654C
:101F800072436F6E6669670046696C7465722063A0
:101F90006F6E6669672077617320646F6E65206E6F
:101FA0006F7720746F206C696E6B20746F2068638C
:101FB000616E0000416C6C206C696E6B656420750D
:101FC0007020746F206863616E0000004E6F772090
:101FD000666F722074686520547820736964652088
:101FE0006F6620697400000053657474696E672021
:101FF0007570207468652054784D657373616765EA
:10200000000000004D657373616765206461746151
:1020100020636F6E66696775726564004C696E6BEC
:10202000696E6720697420746F2074686520686326
:10203000616E2000496E20746865206C6F6F70209F
:102040006E6F7700547279696E6720746F207365C4
:102050006E642061206D6573736167650000000028
:102060004D6573736167652073656E7400000000D1
:1020700008B505A00A2300680090022269460348BB
:10208000FFF717F908BD00000D0A000054000020FA
:102090000000000000000000010203040607080918
:1020A00000000000010203046863616E2D3E496E6A
:1020B0007374616E63652D3E7354784D61696C4233
:1020C0006F785B7472616E736D69746D61696C6257
:1020D0006F785D2E5444545220263D203078464679
:1020E0004646464646303B20444F4E4500000000E1
:1020F0006863616E2D3E496E7374616E63652D3E3B
:102100007354784D61696C426F785B7472616E7361
:102110006D69746D61696C626F785D2E54445452C0
:10212000207C3D206863616E2D3E7054784D73674E
:102130002D3E444C433B20444F4E45005C2100085B
:102140000000002010000000921D00086C21000813
:1021500010000020C8040000A21D000801000000BB
:0C216000100000000000000000A24A0473
:04000005080000ED02
:00000001FF
